:100000000C9440000C9410050C9410050C941005F1
:100010000C943A040C9410050C9410050C94610493
:100020000C9410050C9410050C9413040C941005FA
:100030000C9410050C9410050C9410050C941005EC
:100040000C9410050C9410050C9410050C941005DC
:100050000C941005F3031104F503F703F903FB03F4
:10006000FD03FF03010403040504070409040B0452
:100070000D040F0400600070000A240070007680F8
:1000800011241FBECFE5D8E0DEBFCDBFE4E7F0E02E
:1000900040E017C0B591A59135912591059107FDD7
:1000A0000CC095918591EF01F92FE82F05900D92E5
:1000B000A217B307D9F7FE0104C01D92A217B30718
:1000C000E1F7E038F40731F70E94E3010C9468008F
:0400D000F894FFCFD2
:1000D4004775657373204E756D6265722E2E2E0002
:1000E40057696E6E65722E2E2E004C6F7365722EDC
:1000F4002E2E0054696D65206F7574204C6F7365E6
:05010400722E2E2E00FA
:10010A00813011F130F08230D1F1833009F452C0DC
:10011A000895413059F42AB381E090E002C0880F73
:10012A00991F6A95E2F7822B8ABB089541115CC038
:10013A002AB381E090E002C0880F991F6A95E2F71E
:10014A00809582238ABB0895413059F427B381E010
:10015A0090E002C0880F991F6A95E2F7822B87BB4D
:10016A000895411141C027B381E090E002C0880F91
:10017A00991F6A95E2F78095822387BB08954130DB
:10018A0059F424B381E090E002C0880F991F6A9560
:10019A00E2F7822B84BB0895411126C024B381E083
:1001AA0090E002C0880F991F6A95E2F78095822332
:1001BA0084BB0895413059F421B381E090E002C034
:1001CA00880F991F6A95E2F7822B81BB0895411126
:1001DA000BC021B381E090E002C0880F991F6A9595
:0A01EA00E2F78095822381BB08959F
:1001F400813011F130F08230D1F1833009F452C0F2
:100204000895413059F42BB381E090E002C0880F87
:10021400991F6A95E2F7822B8BBB089541115CC04C
:100224002BB381E090E002C0880F991F6A95E2F732
:10023400809582238BBB0895413059F428B381E023
:1002440090E002C0880F991F6A95E2F7822B88BB61
:100254000895411141C028B381E090E002C0880FA5
:10026400991F6A95E2F78095822388BB08954130EF
:1002740059F425B381E090E002C0880F991F6A9574
:10028400E2F7822B85BB0895411126C025B381E096
:1002940090E002C0880F991F6A95E2F78095822347
:1002A40085BB0895413059F422B381E090E002C047
:1002B400880F991F6A95E2F7822B82BB089541113A
:1002C4000BC022B381E090E002C0880F991F6A95A9
:0A02D400E2F78095822382BB0895B3
:1002DE00FC0180818130C1F118F08230E1F0089587
:1002EE0093B78181892B83BF93B782818770892BC6
:1002FE0083BF838182BF85818CBF8FB780688FBF9C
:10030E0003B603FE04C089B7826089BF089589B71A
:10031E00816089BF0895818185BD95B58281877081
:10032E00892B85BD838184BD858183BD8FB7806810
:10033E008FBF05B403FE04C089B7806889BF0895D6
:10034E0089B7806489BF089583818CB98181803893
:10035E0069F48FB780688FBF89B7846089BF8CE0DE
:10036E008FBD9EB58281892B8EBD0895883819F573
:10037E008CE08FBD8EB588608EBD878181110BC0DC
:10038E008FB780688FBF89B7806189BF85818ABD2D
:10039E0086818BBD0CC0813051F48FB780688FBFC2
:1003AE0089B7886089BF85818ABD86818BBD9EB5E0
:0803BE008281892B8EBD089598
:1003C600CF93DF93CDB7DEB764970FB6F894DEBF51
:1003D6000FBECDBF0E9488041ABA8FEF8BBBCE0129
:1003E600019624E1FC0111922A95E9F764E00E9446
:1003F600C90200E010E024ED30E040E060E080E07B
:100406000E94EF040E9402038430D1F40E940C057E
:1004160024EE30E040E060E080E00E94EF049E01C0
:100426002F5F3F4F40E860E081E00E94EF0480EDDF
:1004360097E00E9489020E940C0500E010E00FC0C0
:100446000E940C052EEE30E040E060E080E00E9465
:10045600EF0480ED97E00E9489020E940C050F5F71
:100466001F4F0436110539F60E940C0527EF30E0C0
:1004760040E060E080E00E94EF0480ED97E00E949B
:0804860089020E940C05B5CFAC
:10048E00EF92FF920F931F93CF93DF93CDB7DEB70B
:10049E0028970FB6F894DEBF0FBECDBF7C0188E063
:1004AE00E8E6F0E0DE01119601900D928A95E1F7F3
:1004BE00FF82EE82CE0101960E946F0100E010E0F5
:1004CE000E94FE048823E1F30F5F1F4FC701880FC0
:1004DE00991F880F991F880F991F9701220F331F9D
:1004EE00820F931F0817190759F728960FB6F8941D
:1004FE00DEBF0FBECDBFDF91CF911F910F91FF9049
:04050E00EF900895CD
:10051200EF92FF920F931F93CF93DF93CDB7DEB786
:1005220028970FB6F894DEBF0FBECDBF7C0188E0DE
:10053200E0E6F0E0DE01119601900D928A95E1F776
:10054200CE0101960E946F0100E010E00E94FE04BD
:100552008823E1F30F5F1F4FC701880F991F880F90
:10056200991F880F991F9701220F331F820F931F24
:100572000817190759F728960FB6F894DEBF0FBE71
:10058200CDBFDF91CF911F910F91FF90EF90089512
:10059200CF93DF93DC01962F30E008C03F5F8DECF4
:1005A200989F912D11249695969596959111F6CF37
:1005B20040E01FC02DEC629F212D1124922F9695B1
:1005C20096959695990F892F880F880F980F691B1A
:1005D200962F622F669566956695C42FD0E0219678
:1005E200E32FF0E0EC1BFD0BEA0FFB1F905D908305
:1005F2004F5F4317F8F2A30FB11D1C92DF91CF9109
:02060200089559
:10060400CF93DF93D0E02AC060E080E00E94BC0377
:1006140041E064E06D0F80E00E94850060E170E0DD
:100624000D2E02C0660F771F0A94E2F7609580E0F2
:100634000E94DF04C0E00FC06C2F80E00E943603EC
:10064400811108C0CC0FCC0F8C2F8D0F8F5F0E94AF
:10065400E80307C0CF5FC43078F3DF5FD430A0F283
:08066400D1CFDF91CF91089581
:10066C00813079F028F08230A9F08330E1F024C099
:10067C0089B390E002C0959587956A95E2F78170F1
:10068C00089586B390E002C0959587956A95E2F738
:10069C008170089583B390E002C0959587956A9513
:1006AC00E2F78170089580B390E002C0959587952C
:0C06BC006A95E2F78170089580E00895CF
:1006C800CF93C82F40E064E083E00E94FA0040E046
:1006D80065E083E00E94FA0081E090E00E94470212
:1006E80041E066E083E00E94FA0081E090E00E9429
:1006F80047026C2F82E00E94DF0481E090E00E94B4
:10070800470240E066E083E00E94FA0081E090E062
:080718000E944702CF910895F1
:10072000CF93C82F41E064E083E00E94FA0040E0EC
:1007300065E083E00E94FA0081E090E00E944702B9
:1007400041E066E083E00E94FA0081E090E00E94D0
:1007500047026C2F82E00E94DF0481E090E00E945B
:10076000470240E066E083E00E94FA0081E090E00A
:080770000E944702CF91089599
:10077800813079F028F08230A9F08330E1F00895D3
:10078800613019F48FEF8ABB089561111CC01ABA41
:100798000895613019F48FEF87BB0895611113C074
:1007A80017BA0895613019F48FEF84BB0895611169
:1007B8000AC014BA0895613019F48FEF81BB089507
:0807C800611101C011BA08958E
:1007D000482F50E0FA013197E031F10518F5E65D58
:1007E000FF4F0C94060587E0089589E0089585E29F
:1007F000089584E0089585E0089586E008958AE2EA
:10080000089581E0089582E0089583E008958DE2DF
:1008100008958DE0089580E008958DE308958BE2BA
:06082000089588E0089530
:100826001F920F920FB60F9211242F933F934F935F
:100836005F936F937F938F939F93AF93BF93EF9342
:10084600FF93E0917400F09175000995FF91EF9187
:10085600BF91AF919F918F917F916F915F914F91D2
:0E0866003F912F910F900FBE0F901F9018958D
:100874001F920F920FB60F9211242F933F934F9311
:100884005F936F937F938F939F93AF93BF93EF93F4
:10089400FF93E0917000F09171000995FF91EF9141
:1008A400BF91AF919F918F917F916F915F914F9184
:0E08B4003F912F910F900FBE0F901F9018953F
:1008C2001F920F920FB60F9211242F933F934F93C3
:1008D2005F936F937F938F939F93AF93BF93EF93A6
:1008E200FF93E0917200F09173000995FF91EF91EF
:1008F200BF91AF919F918F917F916F915F914F9136
:0E0902003F912F910F900FBE0F901F901895F0
:1009100041E066E083E00E94850041E064E083E01E
:100920000E94850041E065E083E00E94850060E070
:1009300083E00E94DF0460E082E00E94DF0461E067
:1009400082E00E94BC0388E30E9464038CE00E9462
:0A095000640381E00E94640308952F
:10095A00CF92DF92EF92CF936B01E82EC0E003C0F3
:10096A000E949003CF5FAE2DC6018C0F911DA11D71
:10097A00FC018491A7FD80818111F2CFCF91EF9084
:06098A00DF90CF900895FC
:10099000813031F070F0823031F0833039F00AC0AC
:1009A00090E4960F07C090E1960F04C090E5960F73
:0E09B00001C0962F892F80680E94640308956D
:1009BE00813041F028F0823039F0833039F00895DB
:1009CE006BBB089568BB089565BB089562BB08951F
:1009DE00CF92DF92EF926901E42E0E94C8048E2D11
:0E09EE00B6010E94AD04EF90DF90CF90089507
:1009FC0008B604FEFDCF88B7806188BF81E00895FA
:0C0A0C00EE0FFF1F0590F491E02D0994FF
:080A180081E00E9464030895CF
:040A20000C94000032
:100A2400018801000064000001880100000000004A
:00000001FF
