:100000000C9430000C94DC040C94DC040C94DC04A0
:100010000C9400040C94DC040C94DC040C94270471
:100020000C94DC040C94DC040C94D9030C94DC04D4
:100030000C94DC040C94DC040C94DC040C94DC04C0
:100040000C94DC040C94DC040C94DC040C94DC04B0
:100050000C94DC04006000700009BC007000768025
:1000600011241FBECFE5D8E0DEBFCDBFE4E5F0E050
:1000700040E017C0B591A59135912591059107FDF7
:100080000CC095918591EF01F92FE82F05900D9205
:10009000A217B307D9F7FE0104C01D92A217B30738
:1000A000E1F7E036F40731F70E94D3010C945800D1
:0400B000F894FFCFF2
:1000B4004775657373204E756D6265722E2E2E0022
:1000C40057696E6E65722E2E2E004C6F7365722EFC
:1000D4002E2E0054696D65206F7574204C6F736506
:0500E400722E2E2E001B
:1000EA00813011F130F08230D1F1833009F452C0FD
:1000FA000895413059F42AB381E090E002C0880F94
:10010A00991F6A95E2F7822B8ABB089541115CC058
:10011A002AB381E090E002C0880F991F6A95E2F73E
:10012A00809582238ABB0895413059F427B381E030
:10013A0090E002C0880F991F6A95E2F7822B87BB6D
:10014A000895411141C027B381E090E002C0880FB1
:10015A00991F6A95E2F78095822387BB08954130FB
:10016A0059F424B381E090E002C0880F991F6A9580
:10017A00E2F7822B84BB0895411126C024B381E0A3
:10018A0090E002C0880F991F6A95E2F78095822352
:10019A0084BB0895413059F421B381E090E002C054
:1001AA00880F991F6A95E2F7822B81BB0895411146
:1001BA000BC021B381E090E002C0880F991F6A95B5
:0A01CA00E2F78095822381BB0895BF
:1001D400813011F130F08230D1F1833009F452C012
:1001E4000895413059F42BB381E090E002C0880FA8
:1001F400991F6A95E2F7822B8BBB089541115CC06D
:100204002BB381E090E002C0880F991F6A95E2F752
:10021400809582238BBB0895413059F428B381E043
:1002240090E002C0880F991F6A95E2F7822B88BB81
:100234000895411141C028B381E090E002C0880FC5
:10024400991F6A95E2F78095822388BB089541300F
:1002540059F425B381E090E002C0880F991F6A9594
:10026400E2F7822B85BB0895411126C025B381E0B6
:1002740090E002C0880F991F6A95E2F78095822367
:1002840085BB0895413059F422B381E090E002C067
:10029400880F991F6A95E2F7822B82BB089541115A
:1002A4000BC022B381E090E002C0880F991F6A95C9
:0A02B400E2F78095822382BB0895D3
:1002BE00FC0180818130C1F118F08230E1F00895A7
:1002CE0093B78181892B83BF93B782818770892BE6
:1002DE0083BF838182BF85818CBF8FB780688FBFBC
:1002EE0003B603FE04C089B7826089BF089589B73B
:1002FE00816089BF0895818185BD95B582818770A2
:10030E00892B85BD838184BD858183BD8FB7806830
:10031E008FBF05B403FE04C089B7806889BF0895F6
:10032E0089B7806489BF089583818CB981818038B3
:10033E0069F48FB780688FBF89B7846089BF8CE0FE
:10034E008FBD9EB58281892B8EBD0895883819F593
:10035E008CE08FBD8EB588608EBD878181110BC0FC
:10036E008FB780688FBF89B7806189BF85818ABD4D
:10037E0086818BBD0CC0813051F48FB780688FBFE2
:10038E0089B7886089BF85818ABD86818BBD9EB500
:08039E008281892B8EBD0895B8
:1003A600CF93DF93CDB7DEB764970FB6F894DEBF71
:1003B6000FBECDBF0E944E041ABA8FEF8BBBCE0183
:1003C600019624E1FC0111922A95E9F764E00E9466
:1003D600B90200E010E024EB30E040E060E080E0AD
:1003E6000E94B5040E94F2028430D1F40E94D8041F
:1003F60024EC30E040E060E080E00E94B5049E011D
:100406002F5F3F4F40E860E081E00E94B50480ED39
:1004160097E00E9479020E94D80400E010E00FC025
:100426000E94D8042EEC30E040E060E080E00E94BC
:10043600B50480ED97E00E9479020E94D8040F5F10
:100446001F4F0436110539F60E94D80427ED30E017
:1004560040E060E080E00E94B50480ED97E00E94F5
:0804660079020E94D804B5CF11
:10046E00EF92FF920F931F93CF93DF93CDB7DEB72B
:10047E0028970FB6F894DEBF0FBECDBF7C0188E083
:10048E00E8E6F0E0DE01119601900D928A95E1F713
:10049E00FF82EE82CE0101960E945F0100E010E025
:1004AE000E94D0048823E1F30F5F1F4FC701880F0E
:1004BE00991F880F991F880F991F9701220F331FBD
:1004CE00820F931F0817190759F728960FB6F8943D
:1004DE00DEBF0FBECDBFDF91CF911F910F91FF9069
:0404EE00EF900895EE
:1004F200EF92FF920F931F93CF93DF93CDB7DEB7A7
:1005020028970FB6F894DEBF0FBECDBF7C0188E0FE
:10051200E0E6F0E0DE01119601900D928A95E1F796
:10052200CE0101960E945F0100E010E00E94D0041B
:100532008823E1F30F5F1F4FC701880F991F880FB0
:10054200991F880F991F9701220F331F820F931F44
:100552000817190759F728960FB6F894DEBF0FBE91
:10056200CDBFDF91CF911F910F91FF90EF90089532
:10057200CF93DF93DC01962F30E008C03F5F8DEC14
:10058200989F912D11249695969596959111F6CF57
:1005920040E01FC02DEC629F212D1124922F9695D1
:1005A20096959695990F892F880F880F980F691B3A
:1005B200962F622F669566956695C42FD0E0219698
:1005C200E32FF0E0EC1BFD0BEA0FFB1F905D908325
:1005D2004F5F4317F8F2A30FB11D1C92DF91CF9129
:0205E20008957A
:1005E400CF93DF93D0E02BC060E080E00E94AD03A6
:1005F40041E064E06D0F80E00E94750060E170E00E
:100604000D2E02C0660F771F0A94E2F7609580E012
:100614000E94A504C0E010C06C2F80E00E94270354
:10062400811109C08C2F880FC80F8C2F8D0F8F5FFD
:100634000E94C40407C0CF5FC43070F3DF5FD330BF
:0A06440098F2D0CFDF91CF91089516
:10064E00813079F028F08230A9F08330E1F024C0B7
:10065E0089B390E002C0959587956A95E2F781700F
:10066E00089586B390E002C0959587956A95E2F756
:10067E008170089583B390E002C0959587956A9531
:10068E00E2F78170089580B390E002C0959587954A
:0C069E006A95E2F78170089580E00895ED
:1006AA00CF93C82F40E064E083E00E94EA0040E074
:1006BA0065E083E00E94EA0081E090E00E94370250
:1006CA0041E066E083E00E94EA0081E090E00E9457
:1006DA0037026C2F82E00E94A50481E090E00E941C
:1006EA00370240E066E083E00E94EA0081E090E0A1
:0806FA000E943702CF91089520
:10070200CF93C82F41E064E083E00E94EA0040E01A
:1007120065E083E00E94EA0081E090E00E943702F7
:1007220041E066E083E00E94EA0081E090E00E94FE
:1007320037026C2F82E00E94A50481E090E00E94C3
:10074200370240E066E083E00E94EA0081E090E048
:080752000E943702CF910895C7
:10075A00813079F028F08230A9F08330E1F00895F1
:10076A00613019F48FEF8ABB089561111CC01ABA5F
:10077A000895613019F48FEF87BB0895611113C092
:10078A0017BA0895613019F48FEF84BB0895611187
:10079A000AC014BA0895613019F48FEF81BB089525
:0807AA00611101C011BA0895AC
:1007B2001F920F920FB60F9211242F933F934F93D4
:1007C2005F936F937F938F939F93AF93BF93EF93B7
:1007D200FF93E0917400F09175000995FF91EF91FC
:1007E200BF91AF919F918F917F916F915F914F9147
:0E07F2003F912F910F900FBE0F901F90189502
:100800001F920F920FB60F9211242F933F934F9385
:100810005F936F937F938F939F93AF93BF93EF9368
:10082000FF93E0917000F09171000995FF91EF91B5
:10083000BF91AF919F918F917F916F915F914F91F8
:0E0840003F912F910F900FBE0F901F901895B3
:10084E001F920F920FB60F9211242F933F934F9337
:10085E005F936F937F938F939F93AF93BF93EF931A
:10086E00FF93E0917200F09173000995FF91EF9163
:10087E00BF91AF919F918F917F916F915F914F91AA
:0E088E003F912F910F900FBE0F901F90189565
:10089C0041E066E083E00E94750041E064E083E0A3
:1008AC000E94750041E065E083E00E94750060E005
:1008BC0083E00E94A50460E082E00E94A50461E050
:1008CC0082E00E94AD0388E30E9455038CE00E94F5
:0A08DC00550381E00E9455030895C2
:1008E600CF92DF92EF92CF936B01E82EC0E003C068
:1008F6000E948103CF5FAE2DC6018C0F911DA11DF5
:10090600FC018491A7FD80818111F2CFCF91EF90F8
:06091600DF90CF90089570
:10091C00813031F070F0823031F0833039F00AC020
:10092C0090E4960F07C090E1960F04C090E5960FE7
:0E093C0001C0962F892F80680E9455030895F0
:10094A00813041F028F0823039F0833039F008954F
:10095A006BBB089568BB089565BB089562BB089593
:10096A00CF92DF92EF926901E42E0E948E048E2DBF
:0E097A00B6010E947304EF90DF90CF900895B5
:100988008B3041F08C3021F08A3029F48AE20895C6
:0809980083E2089580E0089558
:1009A00008B604FEFDCF88B7806188BF81E0089556
:0809B00081E00E945503089547
:0409B8000C9400009B
:1009BC0001880100006400000188010000000000B3
:00000001FF
