:100000000C9430000C94B1010C94B1010C94B1012A
:100010000C9435010C94B1010C94B1010C945C0169
:100020000C94B1010C94B1010C940E010C94B1012B
:100030000C94B1010C94B1010C94B1010C94B10178
:100040000C94B1010C94B1010C94B1010C94B10168
:100050000C94B101006000780003660078007E8097
:1000600011241FBECFE5D8E0DEBFCDBFE4E5F0E050
:1000700040E017C0B591A59135912591059107FDF7
:100080000CC095918591EF01F92FE82F05900D9205
:10009000A217B307D9F7FE0104C01D92A217B30738
:1000A000E1F7E036F40731F70E9483010C94580021
:0400B000F894FFCFF2
:1000B400FC0180818130C1F118F08230E1F00895B3
:1000C40093B78181892B83BF93B782818770892BF2
:1000D40083BF838182BF85818CBF8FB780688FBFC8
:1000E40003B603FE04C089B7826089BF089589B747
:1000F400816089BF0895818185BD95B582818770AE
:10010400892B85BD838184BD858183BD8FB780683C
:100114008FBF05B403FE04C089B7806889BF089502
:1001240089B7806489BF089583818CB981818038BF
:1001340069F48FB780688FBF89B7846089BF8CE00A
:100144008FBD9EB58281892B8EBD0895883819F59F
:100154008CE08FBD8EB588608EBD878181110BC008
:100164008FB780688FBF89B7806189BF85818ABD59
:1001740086818BBD0CC0813051F48FB780688FBFEE
:1001840089B7886089BF85818ABD86818BBD9EB50C
:080194008281892B8EBD0895C4
:10019C00EF92FF920F931F93CF93DF93CDB7DEB700
:1001AC0028970FB6F894DEBF0FBECDBF7C0188E058
:1001BC00E0E6F0E0DE01119601900D928A95E1F7F0
:1001CC00CE0101960E945A0000E010E00E94A901A5
:1001DC008823E1F30F5F1F4FC701880F991F880F0A
:1001EC00991F880F991F9701220F331F820F931F9E
:1001FC000817190759F728960FB6F894DEBF0FBEEB
:10020C00CDBFDF91CF911F910F91FF90EF9008958B
:10021C001F920F920FB60F9211242F933F934F936F
:10022C005F936F937F938F939F93AF93BF93EF9352
:10023C00FF93E0917C00F0917D000995FF91EF9187
:10024C00BF91AF919F918F917F916F915F914F91E2
:0E025C003F912F910F900FBE0F901F9018959D
:10026A001F920F920FB60F9211242F933F934F9321
:10027A005F936F937F938F939F93AF93BF93EF9304
:10028A00FF93E0917800F09179000995FF91EF9141
:10029A00BF91AF919F918F917F916F915F914F9194
:0E02AA003F912F910F900FBE0F901F9018954F
:1002B8001F920F920FB60F9211242F933F934F93D3
:1002C8005F936F937F938F939F93AF93BF93EF93B6
:1002D800FF93E0917A00F0917B000995FF91EF91EF
:1002E800BF91AF919F918F917F916F915F914F9146
:0E02F8003F912F910F900FBE0F901F90189501
:10030600CF93DF93CDB7DEB728970FB6F894DEBF4D
:100316000FBECDBF84B3816084BB85B38E7F85BBA2
:1003260088E0E0E7F0E0DE01119601900D928A95F3
:10033600E1F7CE0101960E945A0084EF91E00E94F7
:0C034600CE0095B381E0892785BBF7CF7E
:1003520008B604FEFDCF88B7806188BF81E00895AA
:040362000C940000F7
:10036600018801000064000001880100000000000F
:080376000188010000C800002D
:00000001FF
