:100000000C9430000C947F010C947F010C947F01C0
:100010000C94F5000C947F010C947F010C941C014E
:100020000C947F010C947F010C94CE000C947F0102
:100030000C947F010C947F010C947F010C947F0140
:100040000C947F010C947F010C947F010C947F0130
:100050000C947F010060006800030200680070805B
:1000600011241FBECFE5D8E0DEBFCDBFE4E5F0E050
:1000700040E017C0B591A59135912591059107FDF7
:100080000CC095918591EF01F92FE82F05900D9205
:10009000A217B307D9F7FE0104C01D92A217B30738
:1000A000E1F7E036F40731F70E9443010C94580061
:0400B000F894FFCFF2
:1000B400FC0180818130C1F118F08230E1F00895B3
:1000C40093B78181892B83BF93B782818770892BF2
:1000D40083BF838182BF85818CBF8FB780688FBFC8
:1000E40003B603FE04C089B7826089BF089589B747
:1000F400816089BF0895818185BD95B582818770AE
:10010400892B85BD838184BD858183BD8FB780683C
:100114008FBF05B403FE04C089B7806889BF089502
:1001240089B7806489BF089583818CB981818038BF
:1001340069F48FB780688FBF89B7846089BF8CE00A
:100144008FBD9EB58281892B8EBD0895883819F59F
:100154008CE08FBD8EB588608EBD878181110BC008
:100164008FB780688FBF89B7806189BF85818ABD59
:1001740086818BBD0CC0813051F48FB780688FBFEE
:1001840089B7886089BF85818ABD86818BBD9EB50C
:080194008281892B8EBD0895C4
:10019C001F920F920FB60F9211242F933F934F93F0
:1001AC005F936F937F938F939F93AF93BF93EF93D3
:1001BC00FF93E0916E00F0916F000995FF91EF9124
:1001CC00BF91AF919F918F917F916F915F914F9163
:0E01DC003F912F910F900FBE0F901F9018951E
:1001EA001F920F920FB60F9211242F933F934F93A2
:1001FA005F936F937F938F939F93AF93BF93EF9385
:10020A00FF93E0916A00F0916B000995FF91EF91DD
:10021A00BF91AF919F918F917F916F915F914F9114
:0E022A003F912F910F900FBE0F901F901895CF
:100238001F920F920FB60F9211242F933F934F9353
:100248005F936F937F938F939F93AF93BF93EF9336
:10025800FF93E0916C00F0916D000995FF91EF918B
:10026800BF91AF919F918F917F916F915F914F91C6
:0E0278003F912F910F900FBE0F901F90189581
:10028600CF93DF93CDB7DEB728970FB6F894DEBFCE
:100296000FBECDBF84B3816084BB85B38E7F85BB23
:1002A60085E691E00E947A0188E0E0E6F0E0DE0172
:1002B600119601900D928A95E1F7CE0101960E9462
:0402C6005A00FFCF0C
:1002CA0080916800909169000196909369008093EB
:1002DA0068008C3D954041F495B381E0892785BB40
:0A02EA001092690010926800089558
:0A02F40090936D0080936C00089554
:0402FE000C9400005C
:080302000188010000C80000A1
:00000001FF
