:100000000C9430000C94EC020C94EC020C94EC0276
:100010000C94DE010C94EC020C94EC020C9405029E
:100020000C94EC020C94EC020C94B7010C94EC02CE
:100030000C94EC020C94EC020C94EC020C94EC0288
:100040000C94EC020C94EC020C94EC020C94EC0278
:100050000C94EC02006000700005DC0070007680FB
:1000600011241FBECFE5D8E0DEBFCDBFE4E5F0E050
:1000700040E017C0B591A59135912591059107FDF7
:100080000CC095918591EF01F92FE82F05900D9205
:10009000A217B307D9F7FE0104C01D92A217B30738
:1000A000E1F7E036F40731F70E94E0000C945800C5
:0400B000F894FFCFF2
:1000B4004775657373204E756D6265722E2E2E0022
:1000C40057696E6E65722E2E2E004C6F7365722EFC
:0300D4002E2E00CD
:1000D800FC0180818130C1F118F08230E1F008958F
:1000E80093B78181892B83BF93B782818770892BCE
:1000F80083BF838182BF85818CBF8FB780688FBFA4
:1001080003B603FE04C089B7826089BF089589B722
:10011800816089BF0895818185BD95B58281877089
:10012800892B85BD838184BD858183BD8FB7806818
:100138008FBF05B403FE04C089B7806889BF0895DE
:1001480089B7806489BF089583818CB9818180389B
:1001580069F48FB780688FBF89B7846089BF8CE0E6
:100168008FBD9EB58281892B8EBD0895883819F57B
:100178008CE08FBD8EB588608EBD878181110BC0E4
:100188008FB780688FBF89B7806189BF85818ABD35
:1001980086818BBD0CC0813051F48FB780688FBFCA
:1001A80089B7886089BF85818ABD86818BBD9EB5E8
:0801B8008281892B8EBD0895A0
:1001C000CF93DF93CDB7DEB764970FB6F894DEBF59
:1001D0000FBECDBF0E94C2021ABA8FEF8BBBCE01F9
:1001E000019624E1FC0111922A95E9F764E00E944E
:1001F0007E0100E010E0F12C24EB30E040E060E014
:1002000080E00E94D102C89922C0F394F4E0FF126A
:1002100018C00E94E80224EC30E040E060E080E09A
:100220000E94D10284E090E00E942C029E012F5F88
:100230003F4F40E860E081E00E94D10200E010E022
:10024000F12C8CEB92E00E943E010E94E8020F5FCD
:100250001F4F0436110581F60E94E8022EEC30E0B3
:1002600040E060E080E00E94D10280ED97E00E94D3
:0C0270003E010E94E80200E010E0BECF5A
:10027C00EF92FF920F931F93CF93DF93CDB7DEB71F
:10028C0028970FB6F894DEBF0FBECDBF7C0188E077
:10029C00E0E6F0E0DE01119601900D928A95E1F70F
:1002AC00CE0101960E946C0000E010E00E94E0027A
:1002BC008823E1F30F5F1F4FC701880F991F880F29
:1002CC00991F880F991F9701220F331F820F931FBD
:1002DC000817190759F728960FB6F894DEBF0FBE0A
:1002EC00CDBFDF91CF911F910F91FF90EF900895AB
:1002FC00CF93DF93DC01962F30E008C03F5F8DEC8D
:10030C00989F912D11249695969596959111F6CFCF
:10031C0040E01FC02DEC629F212D1124922F969549
:10032C0096959695990F892F880F880F980F691BB2
:10033C00962F622F669566956695C42FD0E0219610
:10034C00E32FF0E0EC1BFD0BEA0FFB1F905D90839D
:10035C004F5F4317F8F2A30FB11D1C92DF91CF91A1
:02036C000895F2
:10036E001F920F920FB60F9211242F933F934F931C
:10037E005F936F937F938F939F93AF93BF93EF93FF
:10038E00FF93E0917400F09175000995FF91EF9144
:10039E00BF91AF919F918F917F916F915F914F918F
:0E03AE003F912F910F900FBE0F901F9018954A
:1003BC001F920F920FB60F9211242F933F934F93CE
:1003CC005F936F937F938F939F93AF93BF93EF93B1
:1003DC00FF93E0917000F09171000995FF91EF91FE
:1003EC00BF91AF919F918F917F916F915F914F9141
:0E03FC003F912F910F900FBE0F901F901895FC
:10040A001F920F920FB60F9211242F933F934F937F
:10041A005F936F937F938F939F93AF93BF93EF9362
:10042A00FF93E0917200F09173000995FF91EF91AB
:10043A00BF91AF919F918F917F916F915F914F91F2
:0E044A003F912F910F900FBE0F901F901895AD
:100458000F931F93CF93DF93CDB7DEB760970FB697
:10046800F894DEBF0FBECDBF682F8E010F5F1F4F00
:10047800C8010E947E01B80180E80E94900260963F
:100488000FB6F894DEBF0FBECDBFDF91CF911F919D
:040498000F91089523
:10049C00CF93C82F82B38F7E82BB82B38F7D82BBFA
:1004AC0081E090E00E943E0182B3806482BB81E0D7
:1004BC0090E00E943E01C5BB81E090E00E943E01AD
:1004CC0082B38F7B82BB81E090E00E943E01CF9192
:0204DC00089581
:1004DE00CF93C82F82B3806182BB82B38F7D82BBE4
:1004EE0081E090E00E943E0182B3806482BB81E095
:1004FE0090E00E943E01C5BB81E090E00E943E016B
:10050E0082B38F7B82BB81E090E00E943E01CF914F
:02051E0008953E
:10052000CF92DF92EF92CF936B01E82EC0E003C031
:100530000E946F02CF5FAE2DC6018C0F911DA11DD1
:10054000FC018491A7FD80818111F2CFCF91EF90C2
:06055000DF90CF9008953A
:10055600813031F070F0823031F0833039F00AC0EA
:1005660090E4960F07C090E1960F04C090E5960FB1
:0E05760001C0962F892F80680E944E020895C2
:1005840081B3806781BB8FEF84BB88E30E944E02F6
:0E0594008CE00E944E0281E00E944E0208950B
:1005A200CF92DF92EF926901E42E0E94AB028E2D70
:0E05B200B6010E949002EF90DF90CF90089566
:1005C00008B604FEFDCF88B7806188BF81E008953A
:0805D00081E00E944E02089533
:0405D8000C9400007F
:1005DC000188010000640000018801000000000097
:00000001FF
