:100000000C942D000C94CA000C942B010C942B0121
:100010000C942B010C942B010C942B010C942B01B0
:100020000C942B010C942B010C942B010C942B01A0
:100030000C942B010C942B010C942B010C942B0190
:100040000C942B010C942B010C942B010C942B0180
:100050000C942B0100600062800011241FBECFE5CC
:10006000D8E0DEBFCDBFE4E5F0E040E017C0B591D9
:10007000A59135912591059107FD0CC0959185912C
:10008000EF01F92FE82F05900D92A217B307D9F7CA
:10009000FE0104C01D92A217B307E1F7E935F4078A
:0E00A00031F70E9419010C945500F894FFCF1F
:1000AE00843008F06FC0673008F06CC0813001F109
:1000BE0030F08230B1F1833009F44CC00895411113
:1000CE000CC02AB381E090E002C0880F991F6A9598
:1000DE00E2F7809582238ABB08952AB381E090E0EF
:1000EE0002C0880F991F6A95E2F7822B8ABB08958A
:1000FE0041110CC027B381E090E002C0880F991F18
:10010E006A95E2F78095822387BB089527B381E035
:10011E0090E002C0880F991F6A95E2F7822B87BB89
:10012E00089541110CC024B381E090E002C0880F05
:10013E00991F6A95E2F78095822384BB089524B3B4
:10014E0081E090E002C0880F991F6A95E2F7822B3A
:10015E0084BB089541110CC021B381E090E002C030
:10016E00880F991F6A95E2F78095822381BB0895C7
:10017E0021B381E090E002C0880F991F6A95E2F7E3
:06018E00822B81BB0895E5
:100194001F920F920FB60F9211242F933F934F93F8
:1001A4005F936F937F938F939F93AF93BF93EF93DB
:1001B400FF93E0916000F09161000995FF91EF9148
:1001C400BF91AF919F918F917F916F915F914F916B
:0E01D4003F912F910F900FBE0F901F90189526
:1001E2008BB381608BBB2FE38DE093E02150804085
:1001F2009040E1F700C000008BB38E7F8BBB2FE3F2
:100202008DE093E0215080409040E1F700C0000073
:0202120008954D
:1002140040E062E083E00E9457008BB780648BBFAC
:0E02240085B7816085BF85B7826085BF08956C
:100232008FB780688FBF8AB381608ABB0E940A0130
:0A02420081EF90E00E942601FFCF3B
:0A024C009093610080936000089514
:040256000C94000004
:00000001FF
